:020000040000FA
:0100000002FD
:0100010002FC
:0100020002FB
:0100030002FA
:0100040002F9
:0100050002F8
:0100060002F7
:0100070002F6
:0100080002F5
:0100090002F4
:01000A0002F3
:01000B0002F2
:01000C0002F1
:01000D0002F0
:01000E0002EF
:01000F0002EE
:0100100002ED
:0100110002EC
:0100120002EB
:0100130002EA
:0100140002E9
:0100150002E8
:0100160002E7
:0100170002E6
:0100180002E5
:0100190002E4
:01001A0002E3
:01001B0002E2
:01001C0002E1
:01001D0002E0
:01001E0002DF
:01001F0002DE
:0100200002DD
:0100210002DC
:0100220002DB
:0100230002DA
:0100240002D9
:0100250002D8
:0100260002D7
:0100270002D6
:0100280002D5
:0100290002D4
:01002A0002D3
:01002B0002D2
:01002C0002D1
:01002D0002D0
:01002E0002CF
:01002F0002CE
:0100300002CD
:0100310002CC
:0100320002CB
:0100330002CA
:0100340002C9
:0100350002C8
:0100360002C7
:0100370002C6
:0100380002C5
:0100390002C4
:01003A0002C3
:01003B0002C2
:01003C0002C1
:01003D0002C0
:01003E0002BF
:01003F0002BE
:0100400002BD
:0100410002BC
:0100420002BB
:0100430002BA
:0100440002B9
:0100450002B8
:0100460002B7
:0100470002B6
:0100480002B5
:0100490002B4
:01004A0002B3
:01004B0002B2
:01004C0002B1
:01004D0002B0
:01004E0002AF
:01004F0002AE
:0100500002AD
:0100510002AC
:0100520002AB
:0100530002AA
:0100540002A9
:0100550002A8
:0100560002A7
:0100570002A6
:0100580002A5
:0100590002A4
:01005A0002A3
:01005B0002A2
:01005C0002A1
:01005D0002A0
:01005E00029F
:01005F00029E
:01006000029D
:01006100029C
:01006200029B
:01006300029A
:010064000299
:010065000298
:010066000297
:010067000296
:010068000295
:010069000294
:01006A000293
:01006B000292
:01006C000291
:01006D000290
:01006E00028F
:01006F00028E
:01007000028D
:01007100028C
:01007200028B
:01007300028A
:010074000289
:010075000288
:010076000287
:010077000286
:010078000285
:010079000284
:01007A000283
:01007B000282
:01007C000281
:01007D000280
:01007E00027F
:01007F00027E
:01008000027D
:01008100027C
:01008200027B
:01008300027A
:010084000279
:010085000278
:010086000277
:010087000276
:010088000275
:010089000274
:01008A000273
:01008B000272
:01008C000271
:01008D000270
:01008E00026F
:01008F00026E
:01009000026D
:01009100026C
:01009200026B
:01009300026A
:010094000269
:010095000268
:010096000267
:010097000266
:010098000265
:010099000264
:01009A000263
:01009B000262
:01009C000261
:01009D000260
:01009E00025F
:01009F00025E
:0100A000025D
:0100A100025C
:0100A200025B
:0100A300025A
:0100A4000259
:0100A5000258
:0100A6000257
:0100A7000256
:0100A8000255
:0100A9000254
:0100AA000253
:0100AB000252
:0100AC000251
:0100AD000250
:0100AE00024F
:0100AF00024E
:0100B000024D
:0100B100024C
:0100B200024B
:0100B300024A
:0100B4000249
:0100B5000248
:0100B6000247
:0100B7000246
:0100B8000245
:0100B9000244
:0100BA000243
:0100BB000242
:0100BC000241
:0100BD000240
:0100BE00023F
:0100BF00023E
:0100C000023D
:0100C100023C
:0100C200023B
:0100C300023A
:0100C4000239
:0100C5000238
:0100C6000237
:0100C7000236
:0100C8000235
:0100C9000234
:0100CA000233
:0100CB000232
:0100CC000231
:0100CD000230
:0100CE00022F
:0100CF00022E
:0100D000022D
:0100D100022C
:0100D200022B
:0100D300022A
:0100D4000229
:0100D5000327
:0100D6000326
:0100D7000325
:0100D8000324
:0100D9000323
:0100DA000322
:0100DB000321
:0100DC000320
:0100DD00031F
:0100DE00031E
:0100DF00031D
:0100E000031C
:0100E100031B
:0100E200031A
:0100E3000319
:0100E4000318
:0100E5000317
:0100E6000316
:0100E7000315
:0100E8000314
:0100E9000313
:0100EA000312
:0100EB000311
:0100EC000310
:0100ED00030F
:0100EE00030E
:0100EF00030D
:0100F000030C
:0100F100030B
:0100F200030A
:0100F3000309
:0100F4000308
:0100F5000307
:0100F6000306
:0100F7000305
:0100F8000304
:0100F9000303
:0100FA000302
:0100FB000301
:0100FC000300
:0100FD0003FF
:0100FE0003FE
:0100FF0003FD
:0101000003FB
:0101010003FA
:0101020003F9
:0101030003F8
:0101040003F7
:0101050003F6
:0101060003F5
:0101070003F4
:0101080003F3
:0101090003F2
:01010A0003F1
:01010B0003F0
:01010C0003EF
:01010D0003EE
:01010E0003ED
:01010F0003EC
:0101100003EB
:0101110003EA
:0101120003E9
:0101130003E8
:0101140003E7
:0101150003E6
:0101160003E5
:0101170003E4
:0101180003E3
:0101190003E2
:01011A0003E1
:01011B0003E0
:01011C0003DF
:01011D0003DE
:01011E0003DD
:01011F0003DC
:0101200003DB
:0101210003DA
:0101220003D9
:0101230003D8
:0101240003D7
:0101250003D6
:0101260003D5
:0101270003D4
:0101280003D3
:0101290003D2
:01012A0003D1
:01012B0003D0
:01012C0003CF
:01012D0003CE
:01012E0003CD
:01012F0003CC
:0101300003CB
:0101310003CA
:0101320003C9
:0101330003C8
:0101340003C7
:0101350003C6
:0101360003C5
:0101370003C4
:0101380003C3
:0101390003C2
:01013A0003C1
:01013B0003C0
:01013C0003BF
:01013D0003BE
:01013E0003BD
:01013F0003BC
:0101400003BB
:0101410003BA
:0101420003B9
:0101430003B8
:0101440003B7
:0101450003B6
:0101460003B5
:0101470003B4
:0101480003B3
:0101490003B2
:01014A0003B1
:01014B0003B0
:01014C0003AF
:01014D0003AE
:01014E0003AD
:01014F0003AC
:0101500003AB
:0101510003AA
:0101520003A9
:0101530003A8
:0101540003A7
:0101550003A6
:0101560003A5
:0101570003A4
:0101580003A3
:0101590003A2
:01015A0003A1
:01015B0003A0
:01015C00039F
:01015D00039E
:01015E00039D
:01015F00039C
:01016000039B
:01016100039A
:010162000399
:010163000398
:010164000397
:010165000396
:010166000395
:010167000394
:010168000393
:010169000392
:01016A000391
:01016B000390
:01016C00038F
:01016D00038E
:01016E00038D
:01016F00038C
:01017000038B
:01017100038A
:010172000389
:010173000388
:010174000387
:010175000386
:010176000385
:010177000384
:010178000383
:010179000382
:01017A000381
:01017B000380
:01017C00037F
:01017D00037E
:01017E00037D
:01017F00037C
:01018000037B
:01018100037A
:010182000379
:010183000378
:010184000377
:010185000376
:010186000375
:010187000374
:010188000373
:010189000372
:01018A000371
:01018B000370
:01018C00036F
:01018D00036E
:01018E00036D
:01018F00036C
:01019000036B
:01019100036A
:010192000369
:010193000368
:010194000367
:010195000366
:010196000365
:010197000364
:010198000363
:010199000362
:01019A000361
:01019B000360
:01019C00035F
:01019D00035E
:01019E00035D
:01019F00035C
:0101A000035B
:0101A100035A
:0101A2000359
:0101A3000358
:0101A4000357
:0101A5000356
:0101A6000355
:0101A7000354
:0101A8000353
:0101A9000352
:0101AA000351
:0101AB000350
:0101AC00034F
:0101AD00034E
:0101AE00034D
:0101AF00034C
:0101B000034B
:0101B100034A
:0101B2000349
:0101B3000348
:0101B4000347
:0101B5000346
:0101B6000345
:0101B7000344
:0101B8000343
:0101B9000342
:0101BA000341
:0101BB000340
:0101BC00033F
:0101BD00033E
:0101BE00033D
:0101BF00033C
:0101C000033B
:0101C100033A
:0101C2000339
:0101C3000338
:0101C4000337
:0101C5000336
:0101C6000335
:0101C7000334
:0101C8000333
:0101C9000332
:0101CA000331
:0101CB000330
:0101CC00032F
:0101CD00032E
:0101CE00032D
:0101CF00032C
:0101D000032B
:0101D100032A
:0101D2000329
:0101D3000328
:0101D4000327
:0101D5000326
:0101D6000325
:0101D7000324
:0101D8000323
:0101D9000322
:0101DA000321
:0101DB000320
:0101DC00031F
:0101DD00031E
:0101DE00031D
:0101DF00031C
:0101E000031B
:0101E100031A
:0101E2000319
:0101E3000318
:0101E4000317
:0101E5000316
:0101E6000315
:0101E7000314
:0101E8000313
:0101E9000312
:0101EA000311
:0101EB000310
:0101EC00030F
:0101ED00030E
:0101EE00030D
:0101EF00030C
:0101F000030B
:0101F100030A
:0101F2000309
:0101F3000308
:0101F4000307
:0101F5000306
:0101F6000305
:0101F7000304
:0101F8000303
:0101F9000302
:0101FA000301
:0101FB000300
:0101FC0003FF
:0101FD0003FE
:0101FE0003FD
:0101FF0003FC
:00000001ff
