:020000040000FA
:03000000000004F9
:03000100001FEBF2
:03000200003FA418
:03000300005F2E6D
:03000400007E87F4
:03000500009DB6A5
:0300060000BCB18A
:0300070000DB819A
:0300080000FA23D8
:0300090001189645
:03000A000136E2DA
:03000B000154FCA1
:03000C000172EF8F
:03000D000190B0AF
:03000E0001AE4AF6
:03000F0001CBB969
:0300100001E8FA0A
:03001100020612D2
:03001200022302C4
:03001300023FC7E2
:03001400025C602B
:030015000278D19D
:0300160002951C34
:0300170002B13DF6
:0300180002CD32E4
:0300190002E905F4
:03001A000304AC30
:03001B0003202C93
:03001C00033B871C
:03001D000356BACD
:03001E000371C7A4
:03001F00038CAFA0
:0300200003A76FC4
:0300210003C2090E
:0300220003DC7F7D
:0300230003F6CF12
:030024000410FBCA
:03002500042B03A6
:030026000444E5AA
:03002700045EA2D2
:0300280004784019
:030029000491B689
:03002A0004AB0A1A
:03002B0004C439D1
:03002C0004DD4AA6
:03002D0004F634A2
:03002E00050EFDBF
:03002F000527A6FC
:0300300005402C5C
:03003100055891DE
:030032000570D185
:030033000588F24B
:0300340005A0F331
:0300350005B8D635
:0300360005D0975B
:0300370005E836A3
:0300380005FFB40D
:0300390006171493
:03003A00062E553A
:03003B00064578FF
:03003C00065C79E6
:03003D0006735EE9
:03003E00068A220D
:03003F0006A0CB4D
:0300400006B751AF
:0300410006CDBB2E
:0300420006E408C9
:0300430006FA3981
:0300440007104C56
:0300450007263D4E
:03004600073C185C
:030047000751D38B
:03004800076770D7
:03004900077CF23F
:03004A00079258C2
:03004B0007A7A262
:03004C0007BCD01E
:03004D0007D1E2F6
:03004E0007E6DAE8
:03004F0007FBB5F7
:030050000810781D
:0300510008251F60
:030052000839A9C1
:03005300084E193B
:0300540008626FD0
:030055000876AB7F
:03005600088AD045
:03005700089ED62A
:0300580008B2C625
:0300590008C69D39
:03005A0008DA576A
:03005B0008EDFBB2
:03005C0009018512
:03005D000914F68D
:03005E0009284E20
:03005F00093B93C7
:03006000094EBA8C
:030061000961CA68
:030062000974C25C
:030063000987A169
:03006400099A6B8B
:0300650009AD19C9
:0300660009BFB41B
:0300670009D23883
:0300680009E4A206
:0300690009F6F69F
:03006A000A09364A
:03006B000A1B5B12
:03006C000A2D6AF0
:03006D000A3F64E3
:03006E000A514AEA
:03006F000A631809
:030070000A74D33C
:030071000A867389
:030072000A9802E7
:030073000AA97760
:030074000ABAD8ED
:030075000ACC278B
:030076000ADD5D43
:030077000AEE800E
:030078000AFF8FED
:030079000B1087E2
:03007A000B216CEB
:03007B000B323D08
:03007C000B42F83C
:03007D000B53A181
:03007E000B6433DD
:03007F000B74B44B
:030080000B8521CC
:030081000B957864
:030082000BA5BE0D
:030083000BB5EECC
:030084000BC60E9A
:030085000BD6197E
:030086000BE61076
:030087000BF5F581
:030088000C05C69E
:030089000C1589CA
:03008A000C25350D
:03008B000C34CD65
:03008C000C4455CC
:03008D000C53CE43
:03008E000C6331CF
:03008F000C72836D
:030090000C81C31D
:030091000C90F0E0
:030092000CA00CB3
:030093000CAF1897
:030094000CBE118E
:030095000CCCF799
:030096000CDBCCB4
:030097000CEA95DB
:030098000CF94719
:030099000D07EB65
:03009A000D167DC3
:03009B000D24FF32
:03009C000D3372AF
:03009D000D41D141
:03009E000D5023DF
:03009F000D5E6192
:0300A0000D6C8F55
:0300A1000D7AAF26
:0300A2000D88BC0A
:0300A3000D96BAFD
:0300A4000DA4AEFA
:0300A5000DB28C0D
:0300A6000DC05A30
:0300A7000DCE1C5F
:0300A8000DDBCBA2
:0300A9000DE96BF3
:0300AA000DF6FD53
:0300AB000E0480C0
:0300AC000E11F43E
:0300AD000E1F57CC
:0300AE000E2CAD68
:0300AF000E39F512
:0300B0000E472BCD
:0300B1000E545595
:0300B2000E61706C
:0300B3000E6E7955
:0300B4000E7B764A
:0300B5000E88644E
:0300B6000E95485C
:0300B7000EA21B7B
:0300B8000EAEDCAD
:0300B9000EBB96E5
:0300BA000EC83D30
:0300BB000ED4D789
:0300BC000EE164EE
:0300BD000EEDE263
:0300BE000EFA52E5
:0300BF000F06B574
:0300C0000F130A11
:0300C1000F1F52BC
:0300C2000F2B9170
:0300C3000F37BC38
:0300C4000F43E106
:0300C5000F4FF3E7
:0300C6000F5BF9D4
:0300C7000F67F2CE
:0300C8000F73DFD4
:0300C9000F7FBFE7
:0300CA000F8B9108
:0300CB000F975735
:0300CC000FA3146B
:0300CD000FAEC0B3
:0300CE000FBA5F07
:0300CF000FC5F367
:0300D0000FD17CD1
:0300D1000FDCF64B
:0300D2000FE868CC
:0300D3000FF3CA5E
:0300D4000FFF20FB
:0300D500000A6DB1
:0300D6000015AC66
:0300D7000020E026
:0300D800002C06F3
:0300D900003724C9
:0300DA00004233AE
:0300DB00004D369F
:0300DC0000582E9B
:0300DD0000631CA1
:0300DE00006E01B0
:0300DF000078D6D0
:0300E0000083A3F7
:0300E100008E632B
:0300E2000099186A
:0300E30000A3C3B4
:0300E40000AE600B
:0300E50000B8F56B
:0300E60000C37FD5
:0300E70000CDFB4E
:0300E80000D86DD0
:0300E90000E2D75B
:0300EA0000ED36F0
:0300EB0000F78794
:0300EC000101CD42
:0300ED00010C0FF4
:0300EE00011640B8
:0300EF0001206984
:0300F000012A8A58
:0300F10001349D3A
:0300F200013EA626
:0300F3000148A71A
:0300F40001529D19
:0300F500015C8922
:0300F60001666C34
:0300F70001704352
:0300F800017A107A
:0300F9000183D4AC
:0300FA00018D8CE9
:0300FB0001973D2D
:0300FC0001A0E27E
:0300FD0001AA80D5
:0300FE0001B41436
:0300FF0001BD9EA2
:0301000001C71C18
:0301010001D09595
:0301020001DA031C
:0301030001E365B0
:0301040001ECBF4C
:0301050001F612EE
:0301060001FF5A9C
:0301070002089853
:030108000211CB16
:03010900021AF9DE
:03010A0002241DAF
:03010B00022D378B
:03010C0002364771
:03010D00023F4F5F
:03010E0002484E56
:03010F0002514753
:03011000025A355B
:030111000263186E
:03011200026BF687
:030113000274CCA7
:03011400027D96D3
:0301150002865B04
:03011600028F1441
:030117000297C587
:0301180002A06DD5
:0301190002A91028
:03011A0002B1A887
:03011B0002BA39EC
:03011C0002C2C25A
:03011D0002CB40D2
:03011E0002D3B851
:03011F0002DC28D7
:0301200002E49165
:0301210002ECEFFE
:0301220002F5449F
:0301230002FD9446
:030124000305DDF3
:03012500030E1CAA
:030126000316536A
:03012700031E852F
:030128000326ACFF
:03012900032ECDD5
:03012A000336E7B2
:03012B00033EF69A
:03012C0003470086
:03012D00034F037A
:03012E000356FC79
:03012F00035EEF7D
:030130000366DC87
:03013100036EBF9B
:0301320003769CB5
:03013300037E71D7
:0301340003863F00
:03013500038E0531
:030136000395C668
:03013700039D7DA8
:0301380003A52BF1
:0301390003ACD93B
:03013A0003B47B90
:03013B0003BC15ED
:03013C0003C3A852
:03013D0003CB36BB
:03013E0003D2BE2B
:03013F0003DA3CA4
:0301400003E1B622
:0301410003E927A8
:0301420003F09235
:0301430003F7F7C8
:0301440003FF5363
:030145000406A805
:03014600040DF8AD
:030147000415425A
:03014800041C8410
:030149000423BFCD
:03014A00042AF490
:03014B0004322358
:03014C0004394B28
:03014D0004406FFC
:03014E00044789DA
:03014F00044E9EBD
:030150000455ACA7
:03015100045CB299
:030152000463B48F
:03015300046AB08B
:030154000471A48F
:0301550004789398
:03015600047F7BA8
:0301570004865FBC
:03015800048D3BD8
:0301590004940FFC
:03015A00049ADF25
:03015B0004A1AA52
:03015C0004A86E86
:03015D0004AF29C3
:03015E0004B5E104
:03015F0004BC9548
:0301600004C34194
:0301610004C9E7E7
:0301620004D08541
:0301630004D71EA0
:0301640004DDB205
:0301650004E4426D
:0301660004EACCDC
:0301670004F14D53
:0301680004F7CACF
:0301690004FE4051
:03016A000504B2D7
:03016B00050B1F62
:03016C00051186F4
:03016D000517E78C
:03016E00051E4328
:03016F00052499CB
:03017000052AE776
:0301710005313124
:0301720005377AD4
:03017300053DB790
:030174000543F34D
:03017500054A2810
:03017600055059D8
:03017700055683A7
:03017800055CA67D
:030179000562C557
:03017A000568DF36
:03017B00056EF519
:03017C0005750501
:03017D00057B10EF
:03017E00058115E3
:03017F00058714DD
:03018000058D0EDC
:03018100059305DE
:030182000598F8E5
:03018300059EE3F3
:0301840005A4CA05
:0301850005AAAA1E
:0301860005B08938
:0301870005B66159
:0301880005BC3380
:0301890005C1FFAE
:03018A0005C7C8DE
:03018B0005CD8D12
:03018C0005D34B4D
:03018D0005D90988
:03018E0005DEBCCF
:03018F0005E46B19
:0301900005EA1A63
:0301910005EFC0B7
:0301920005F5620E
:0301930005FAFF6B
:0301940006009BC7
:0301950006062F2C
:03019600060BBF96
:0301970006114A04
:030198000616CF79
:03019900061C50F1
:03019A000621CE6D
:03019B00062745EF
:03019C00062CB777
:03019D0006322700
:03019E000637938E
:03019F00063CFA21
:0301A00006425EB6
:0301A1000647BB53
:0301A200064D12F5
:0301A30006526899
:0301A4000657B942
:0301A500065D05EF
:0301A60006624BA3
:0301A70006679157
:0301A800066CCF13
:0301A90006720AD1
:0301AA0006774095
:0301AB00067C735C
:0301AC000681A227
:0301AD000686CAF9
:0301AE00068BEECF
:0301AF0006910FA7
:0301B00006962C84
:0301B100069B4664
:0301B20006A05A4A
:0301B30006A56A34
:0301B40006AA7820
:0301B50006AF8111
:0301B60006B48606
:0301B70006B987FF
:0301B80006BE83FD
:0301B90006C37901
:0301BA0006C86E06
:0301BB0006CD5E10
:0301BC0006D2491F
:0301BD0006D7332F
:0301BE0006DC1A42
:0301BF0006E0FA5D
:0301C00006E5D57C
:0301C10006EAAD9E
:0301C20006EF84C1
:0301C30006F455EA
:0301C40006F92118
:0301C50006FDEB49
:0301C6000702B17C
:0301C700070770B7
:0301C800070C30F1
:0301C9000710EB31
:0301CA000715A076
:0301CB00071A53BD
:0301CC00071F0406
:0301CD000723AF56
:0301CE00072858A7
:0301CF00072CF901
:0301D00007319C58
:0301D100073637B7
:0301D200073AD118
:0301D300073F667D
:0301D4000743FAE4
:0301D50007488850
:0301D600074D13BF
:0301D70007519835
:0301D80007561CAB
:0301D900075A9D25
:0301DA00075F1BA1
:0301DB0007639324
:0301DC00076809A8
:0301DD00076C7C30
:0301DE000770EABD
:0301DF000775544D
:0301E0000779C0DC
:0301E100077E2571
:0301E2000782850C
:0301E3000786E0AC
:0301E400078B3A4C
:0301E500078F93EE
:0301E6000793E795
:0301E7000798373F
:0301E800079C85EC
:0301E90007A0CF9D
:0301EA0007A51551
:0301EB0007A95908
:0301EC0007AD98C4
:0301ED0007B1D780
:0301EE0007B60F42
:0301EF0007BA4408
:0301F00007BE79CE
:0301F10007C2A79B
:0301F20007C6D469
:0301F30007CAFD3B
:0301F40007CF250D
:0301F50007D347E6
:0301F60007D768C0
:0301F70007DB849F
:0301F80007DF9F7F
:0301F90007E3B465
:0301FA0007E7C84C
:0301FB0007EBDA35
:0301FC0007EFE822
:0301FD0007F3F114
:0301FE0007F7F907
:0301FF0007FC01F9
:00000001ff
