:020000040000FA
:03000000000004F9
:03000100000FFCF1
:03000200003FC4F8
:03000300008F2D3E
:0300040000FE08F3
:03000500018C2546
:0300060002395864
:030007000305717D
:0300080003F043BF
:0300090004F9A156
:03000A0006215D6F
:03000B0007674C38
:03000C0008CB40DE
:03000D000A4D0F8A
:03000E000BEC8C6C
:03000F000DA98CAC
:030010000F83E576
:03001100017B6B05
:03001200038FF465
:0300130005C157CD
:03001400080F6A68
:030015000A7A0361
:030016000D00F9E1
:030017000FA4240F
:0300180002635C24
:03001900053E772A
:03001A0008354F57
:03001B000B47BCD4
:03001C000E7596C8
:03001D0001BEB76A
:03001E000522F8C0
:03001F0008A23202
:030020000C3C4055
:030021000FF0FCE1
:0300220003C040D8
:0300230007A9E743
:030024000BADCC55
:030025000FCBCA34
:030026000403BD13
:03002700085581F8
:030028000CC0F118
:030029000145EBA3
:03002A0005E44AA0
:03002B000A9BEC41
:03002C000F6CADA9
:03002D0004566C0A
:03002E0009590568
:03002F000E7456F6
:0300300003A83EE4
:0300310008F49B35
:030032000E594C18
:0300330003D62FC2
:03003400096B2332
:030035000F18079A
:0300360004DCBC2B
:030037000AB921E2
:0300380000AD1602
:0300390006B87B8B
:03003A000CDB30AC
:03003B0003151694
:03003C0009660F43
:03003D000FCDFAEA
:03003E00064CBAB3
:03003F000CE22FA1
:03004000038E3DEF
:030041000A50C49E
:030042000129A6EB
:030043000818C6D4
:030044000F1E0785
:0300450006394C2D
:030046000D6A76CA
:0300470004B16A97
:030048000C0E0B90
:0300490003803CF5
:03004A000B07E1C0
:03004B0002A4DE2E
:03004C000A571739
:03004D00021E711F
:03004E0009FACFDD
:03004F0001EC17AA
:0300500009F22D85
:03005100020CF7A7
:030052000A3C5A0B
:0300530002803BED
:030054000AD88047
:0300550003450E52
:030056000BC5CB0C
:03005700045A9FA9
:030058000D036E27
:0300590005C01FC0
:03005A000E909A6B
:03005B000774C463
:03005C00006C85B0
:03005D000977C45C
:03005E000296689F
:03005F000BC85873
:03006000050D7D0E
:030061000E65BE6B
:0300620007D103C0
:03006300014F3416
:030064000AE03976
:030065000483FC15
:030066000E3A63EC
:0300670008035833
:0300680001DEC5F1
:030069000BCC912C
:03006A0005CCA61C
:03006B000FDEEEB7
:03006C000A035232
:03006D000439BB98
:03006E000E8213EC
:03006F0008DC4466
:030070000348380A
:030071000DC5DAE0
:030072000855131B
:0300730002F5CFC4
:030074000DA7F7DE
:03007500086B769F
:030076000340380C
:030077000E26272B
:03007800091D2E31
:0300790004253922
:03007A000F3E3303
:03007B000A680709
:03007C0005A2A238
:03007D0000EDEEA5
:03007E000C49D951
:03007F0007B64D74
:0300800003333710
:030081000EC0842A
:030082000A5E1FF4
:03008300060BF673
:0300840001C9F4BB
:030085000D9807CC
:0300860009761CDC
:0300870005641FEE
:030088000161FE15
:030089000D6FA553
:03008A00098D03DA
:03008B0005BA05AE
:03008C0001F698E2
:03008D000E42A977
:03008E000A9E289F
:03008F000709015D
:03009000038323C4
:03009100000C7CE4
:030092000CA4FAC1
:03009300094C8B8A
:0300940006031E42
:0300950002C8A2FC
:030096000F9D05B6
:030097000C8035A5
:03009800097223C7
:030099000672BC30
:03009A000381F0EF
:03009B00009FAE15
:03009C000DCBE5A4
:03009D000B0685CA
:03009E00084F7D8B
:03009F0005A6BDF6
:0300A000030C3519
:0300A100007FD30A
:0300A2000E0189C3
:0300A3000B914678
:0300A400092EF929
:0300A50006DA94E4
:0300A600049407B8
:0300A700025B41B8
:0300A800003034F1
:0300A9000E12D064
:0300AA000C03053F
:0300AB000A00C484
:0300AC00080BFE40
:0300AD000624A482
:0300AE00044AA75A
:0300AF00027DF7D8
:0300B00000BE8708
:0300B1000F0C47EA
:0300B2000D6728AF
:0300B3000BCF1D53
:0300B4000A4416E5
:0300B50008C60575
:0300B6000754DB11
:0300B70005F08BC6
:0300B800049907A1
:0300B900034E3FB4
:0300BA000210270A
:0300BB0000DEB0B4
:0300BC000FB9CCAD
:0300BD000EA16E23
:0300BE000D958815
:0300BF000C960C90
:0300C0000BA2EDA3
:0300C1000ABC1D59
:0300C20009E18EC3
:0300C300091335E9
:0300C400085102DE
:0300C500079AEAAD
:0300C60006F0DF62
:0300C7000652D40A
:0300C80005C0BCB4
:0300C900053A8A6B
:0300CA0004C0323D
:0300CB000451A637
:0300CC0003EEDA66
:0300CD000397C2D4
:0300CE00034C518F
:0300CF00030C7AA5
:0300D00002D83122
:0300D10002AF6B10
:0300D2000292197E
:0300D30002803177
:0300D4000279A707
:0300D500027E6D3B
:0300D600028E791E
:0300D70002A9BEBD
:0300D80002D03122
:0300D9000301C55B
:0300DA00033E7072
:0300DB0003862574
:0300DC0003D8D96D
:0300DD0004368066
:0300DE00049F0E6E
:0300DF0005127A8D
:0300E0000590B6D2
:0300E1000619B845
:0300E20006AD75F3
:0300E300074BE1E7
:0300E40007F4F22C
:0300E50008A89CCC
:0300E6000966D4D4
:0300E7000A2F904D
:0300E8000B02C543
:0300E9000BE067C2
:0300EA000CC86CD3
:0300EB000DBACA81
:0300EC000EB776D6
:0300ED000FBE64DF
:0300EE0000CF8CB4
:0300EF0001EAE241
:0300F00003105B9F
:0300F100043FEEDB
:0300F200057991FC
:0300F30006BD380F
:0300F400080ADA1D
:0300F50009626D30
:0300F6000AC3E654
:0300F7000C2F3C8F
:0300F8000DA465EF
:0300F9000F23567C
:0300FA0000AC0750
:0300FB00023E6C56
:0300FC0003DA7DA7
:0300FD0005802F4C
:0300FE00072F7950
:0300FF0008E851BD
:030100000AAAAF99
:030101000C7687F2
:030102000E4BD1D0
:03010300002A844B
:030104000212964E
:030105000403FDF3
:0301060005FEB142
:030107000802A843
:030108000A0FDA01
:030109000C263C85
:03010A000E45C6D9
:03010B00006E6F14
:03010C0002A02E20
:03010D0004DAFA17
:03010E00071ECAFF
:03010F00096B95E4
:030110000BC152CE
:030111000E1FFAC4
:03011200008782E1
:0301130002F7E20E
:0301140005711260
:0301150007F309E4
:030116000A7DBFA0
:030117000D112B9C
:030118000FAD45E3
:030119000252038C
:03011A0004FF5F80
:03011B0007B54FD6
:03011C000A73CB98
:03011D000D3ACCCC
:03011E00000A488C
:03011F0002E238C1
:0301200005C29382
:0301210008AB52D6
:030122000B9C6DC6
:030123000E95DB5B
:03012400019794AC
:0301250004A191A1
:0301260007B3CA52
:030127000ACE36C7
:030128000DF0CF08
:03012900011B8C2B
:03012A00044E651B
:03012B00078954ED
:03012C000ACC50AA
:03012D000E175159
:03012E00016A5112
:03012F0004C547BD
:0301300008282C70
:030131000B92F935
:030132000F05A610
:0301330002802C1B
:030134000602833D
:03013500098CA58D
:030136000D1E8912
:0301370000B829E4
:0301380004597EE9
:0301390008027F3A
:03013A000BB327DD
:03013B000F6B6ED9
:03013C00032B4D45
:03013D0006F2BD0A
:03013E000AC1B63D
:03013F000E9833E4
:0301400002762B19
:03014100065B99C1
:030142000A4875F3
:030143000E3CB8B7
:0301440002385C22
:03014500063B5A1C
:030146000A45ABBC
:030147000E574808
:0301480002702B17
:0301490006904DD0
:03014A000AB7A849
:03014B000EE63489
:03014C00031BECA6
:03014D000758C888
:03014E000B9CC344
:03014F000FE7D6E1
:030150000439FA75
:0301510008932AE6
:030152000CF35E4D
:03015300015A90BE
:0301540005C8BB20
:030155000A3DD789
:030156000EB9DF00
:03015700033CCC9A
:0301580007C6983F
:030159000C573E02
:03015A0000EEB6FE
:03015B00058CFB15
:03015C000A32065E
:03015D000EDDD3E1
:03015E0003905AB1
:03015F00084995B7
:030160000D097F07
:0301610001D012B8
:03016200069D48AF
:030163000B711B02
:03016400004B85C8
:03016500052C80E6
:030166000A140672
:030167000F021371
:0301680003F69FFC
:0301690008F1A6F4
:03016A000DF32171
:03016B0002FB0B89
:03016C0008095E21
:03016D000D1E154F
:03016E0002392A29
:03016F00075A9795
:030170000C8258A6
:0301710001B06674
:0301720006E4BBE5
:030173000C1F540A
:03017400016029FE
:0301750006A736A4
:030176000BF47512
:030177000147E15C
:0301780006A17568
:030179000C012B4B
:03017A000166FE1D
:03017B0006D2E8C1
:03017C000C44E54B
:03017D0001BCEFD3
:03017E00073B013B
:03017F000CBF169C
:0301800002492908
:0301810007D93467
:030182000D6F32CC
:03018300030B1F4C
:0301840008ACF5CF
:030185000E54B065
:0301860004024927
:0301870009B5BDFA
:030188000F6F06F0
:03018900052E2020
:03018A000AF30570
:03018B0000BDB004
:03018C00068E1DBF
:03018D000C6446B9
:03018E0002402804
:03018F000821BD87
:030190000E08FF57
:0301910003F5EC87
:0301920009E87DFC
:030193000FE0AECC
:0301940005DE7A0B
:030195000BE1DD9E
:0301960001EAD2A9
:0301970007F95411
:030198000E0D5FEA
:030199000426EE4B
:03019A000A45FC17
:03019B00006A8572
:03019C0006948541
:03019D000CC3F69A
:03019E0002F8D490
:03019F0009331B06
:0301A0000F72C615
:0301A10005B7D1CE
:0301A2000C023814
:0301A3000251F511
:0301A40008A705A4
:0301A5000F0163E4
:0301A60005610BE5
:0301A7000BC5F88D
:0301A800023027FB
:0301A900089F921A
:0301AA000F1436F9
:0301AB00058E0EB0
:0301AC000C0D1621
:0301AD0002914A72
:0301AE00091AA685
:0301AF000FA92570
:0301B000063CC347
:0301B1000CD57CEE
:0301B20003734C88
:0301B3000A162FFA
:0301B40000BE206A
:0301B500076B1CB9
:0301B6000E1D1EFD
:0301B70004D4234A
:0301B8000B902683
:0301B900025124CC
:0301BA000917180A
:0301BB000FE1FE53
:0301BC0006B1D3B6
:0301BD000D86921A
:0301BE00046037A3
:0301BF000B3EBF35
:0301C000022226F2
:0301C100090A68C0
:0301C2000FF780B4
:0301C30006E96BDF
:0301C4000DE02625
:0301C50004DBACAC
:0301C6000BDBF957
:0301C70002E10B47
:0301C80009EADC65
:0301C90000F969D1
:0301CA00080CAF6F
:0301CB000F24AA54
:0301CC0006415594
:0301CD000D62AE12
:0301CE000488B0F2
:0301CF000BB35916
:0301D00002E2A3A5
:0301D1000A168D7E
:0301D200014F11C9
:0301D300088C2D68
:0301D4000FCDDC70
:0301D50007141CF0
:0301D6000E5EE8D2
:0301D70005AE3E34
:0301D8000D0219FC
:0301D900045A764F
:0301DA000BB7510F
:0301DB000318A85E
:0301DC000A7E7622
:0301DD0001E8B87E
:0301DE0009576B53
:0301DF0000CA8BC8
:0301E000084214BE
:0301E1000FBE044A
:0301E200073E577E
:0301E3000EC30A3E
:0301E400064C19AD
:0301E5000DD980B1
:0301E600056B3D69
:0301E7000D014CBB
:0301E800049BAACB
:0301E9000C3A537A
:0301EA0003DD45ED
:0301EB000B847B07
:0301EC00032FF4EA
:0301ED000ADFAA7C
:0301EE0002939CDD
:0301EF000A4BC6F2
:0301F000020824DE
:0301F10009C8B585
:0301F200018D7309
:0301F30009565D4D
:0301F40001236E76
:0301F50008F4A566
:0301F60000C9FD40
:0301F70008A374E6
:0301F8000081067D
:0301F9000862B1E8
:0301FA0000487149
:0301FB0008324384
:0301FC00002024BC
:0301FD00081212D3
:0301FE00000808EE
:0301FF00080204EF
:00000001ff
