:020000040000FA
:020000000400FA
:0200010003FEFC
:0200020003FCFD
:0200030003FAFE
:0200040003F8FF
:0200050003F600
:0200060003F401
:0200070003F202
:0200080003F003
:0200090003EE04
:02000A0003EC05
:02000B0003EA06
:02000C0003E807
:02000D0003E608
:02000E0003E409
:02000F0003E20A
:0200100003E00B
:0200110003DF0B
:0200120003DD0C
:0200130003DB0D
:0200140003D90E
:0200150003D70F
:0200160003D510
:0200170003D311
:0200180003D211
:0200190003D012
:02001A0003CE13
:02001B0003CC14
:02001C0003CA15
:02001D0003C915
:02001E0003C716
:02001F0003C517
:0200200003C318
:0200210003C119
:0200220003C019
:0200230003BE1A
:0200240003BC1B
:0200250003BA1C
:0200260003B91C
:0200270003B71D
:0200280003B51E
:0200290003B41E
:02002A0003B21F
:02002B0003B020
:02002C0003AE21
:02002D0003AD21
:02002E0003AB22
:02002F0003A923
:0200300003A823
:0200310003A624
:0200320003A425
:0200330003A325
:0200340003A126
:02003500039F27
:02003600039E27
:02003700039C28
:02003800039B28
:02003900039929
:02003A0003972A
:02003B0003962A
:02003C0003942B
:02003D0003922C
:02003E0003912C
:02003F00038F2D
:02004000038E2D
:02004100038C2E
:02004200038B2E
:0200430003892F
:02004400038730
:02004500038630
:02004600038431
:02004700038331
:02004800038132
:02004900038032
:02004A00037E33
:02004B00037D33
:02004C00037B34
:02004D00037A34
:02004E00037835
:02004F00037735
:02005000037536
:02005100037436
:02005200037237
:02005300037137
:02005400036F38
:02005500036E38
:02005600036C39
:02005700036B39
:0200580003693A
:0200590003683A
:02005A0003663B
:02005B0003653B
:02005C0003643B
:02005D0003623C
:02005E0003613C
:02005F00035F3D
:02006000035E3D
:02006100035C3E
:02006200035B3E
:02006300035A3E
:0200640003583F
:0200650003573F
:02006600035540
:02006700035440
:02006800035340
:02006900035141
:02006A00035041
:02006B00034E42
:02006C00034D42
:02006D00034C42
:02006E00034A43
:02006F00034943
:02007000034843
:02007100034644
:02007200034544
:02007300034444
:02007400034245
:02007500034145
:02007600034045
:02007700033E46
:02007800033D46
:02007900033C46
:02007A00033A47
:02007B00033947
:02007C00033847
:02007D00033747
:02007E00033548
:02007F00033448
:02008000033348
:02008100033149
:02008200033049
:02008300032F49
:02008400032E49
:02008500032C4A
:02008600032B4A
:02008700032A4A
:0200880003294A
:0200890003274B
:02008A0003264B
:02008B0003254B
:02008C0003244B
:02008D0003224C
:02008E0003214C
:02008F0003204C
:02009000031F4C
:02009100031E4C
:02009200031C4D
:02009300031B4D
:02009400031A4D
:0200950003194D
:0200960003174E
:0200970003164E
:0200980003154E
:0200990003144E
:02009A0003134E
:02009B0003124E
:02009C0003104F
:02009D00030F4F
:02009E00030E4F
:02009F00030D4F
:0200A000030C4F
:0200A100030B4F
:0200A200030950
:0200A300030850
:0200A400030750
:0200A500030650
:0200A600030550
:0200A700030450
:0200A800030350
:0200A900030151
:0200AA00030051
:0200AB0002FF52
:0200AC0002FE52
:0200AD0002FD52
:0200AE0002FC52
:0200AF0002FB52
:0200B00002FA52
:0200B10002F853
:0200B20002F753
:0200B30002F653
:0200B40002F553
:0200B50002F453
:0200B60002F353
:0200B70002F253
:0200B80002F153
:0200B90002F053
:0200BA0002EF53
:0200BB0002EE53
:0200BC0002EC54
:0200BD0002EB54
:0200BE0002EA54
:0200BF0002E954
:0200C00002E854
:0200C10002E754
:0200C20002E654
:0200C30002E554
:0200C40002E454
:0200C50002E354
:0200C60002E254
:0200C70002E154
:0200C80002E054
:0200C90002DF54
:0200CA0002DE54
:0200CB0002DD54
:0200CC0002DC54
:0200CD0002DB54
:0200CE0002DA54
:0200CF0002D954
:0200D00002D854
:0200D10002D754
:0200D20002D654
:0200D30002D554
:0200D40002D454
:0200D50002D354
:0200D60002D254
:0200D70002D154
:0200D80002D054
:0200D90002CF54
:0200DA0002CE54
:0200DB0002CD54
:0200DC0002CC54
:0200DD0002CB54
:0200DE0002CA54
:0200DF0002C954
:0200E00002C854
:0200E10002C754
:0200E20002C654
:0200E30002C554
:0200E40002C454
:0200E50002C354
:0200E60002C254
:0200E70002C154
:0200E80002C054
:0200E90002BF54
:0200EA0002BE54
:0200EB0002BD54
:0200EC0002BC54
:0200ED0002BB54
:0200EE0002BB53
:0200EF0002BA53
:0200F00002B953
:0200F10002B853
:0200F20002B753
:0200F30002B653
:0200F40002B553
:0200F50002B453
:0200F60002B353
:0200F70002B253
:0200F80002B153
:0200F90002B053
:0200FA0002B052
:0200FB0002AF52
:0200FC0002AE52
:0200FD0002AD52
:0200FE0002AC52
:0200FF0002AB52
:0201000002AA51
:0201010002A951
:0201020002A851
:0201030002A850
:0201040002A750
:0201050002A650
:0201060002A550
:0201070002A450
:0201080002A350
:0201090002A250
:02010A0002A150
:02010B0002A14F
:02010C0002A04F
:02010D00029F4F
:02010E00029E4F
:02010F00029D4F
:02011000029C4F
:02011100029B4F
:02011200029B4E
:02011300029A4E
:0201140002994E
:0201150002984E
:0201160002974E
:0201170002964E
:0201180002954E
:0201190002954D
:02011A0002944D
:02011B0002934D
:02011C0002924D
:02011D0002914D
:02011E0002914C
:02011F0002904C
:02012000028F4C
:02012100028E4C
:02012200028D4C
:02012300028C4C
:02012400028C4B
:02012500028B4B
:02012600028A4B
:0201270002894B
:0201280002884B
:0201290002884A
:02012A0002874A
:02012B0002864A
:02012C0002854A
:02012D0002844A
:02012E00028449
:02012F00028349
:02013000028249
:02013100028149
:02013200028049
:02013300028048
:02013400027F48
:02013500027E48
:02013600027D48
:02013700027D47
:02013800027C47
:02013900027B47
:02013A00027A47
:02013B00027947
:02013C00027946
:02013D00027846
:02013E00027746
:02013F00027646
:02014000027645
:02014100027545
:02014200027445
:02014300027345
:02014400027344
:02014500027244
:02014600027144
:02014700027044
:02014800027043
:02014900026F43
:02014A00026E43
:02014B00026D43
:02014C00026D42
:02014D00026C42
:02014E00026B42
:02014F00026A42
:02015000026A41
:02015100026941
:02015200026841
:02015300026840
:02015400026740
:02015500026640
:02015600026540
:0201570002653F
:0201580002643F
:0201590002633F
:02015A0002633E
:02015B0002623E
:02015C0002613E
:02015D0002603E
:02015E0002603D
:02015F00025F3D
:02016000025E3D
:02016100025E3C
:02016200025D3C
:02016300025C3C
:02016400025C3B
:02016500025B3B
:02016600025A3B
:0201670002593B
:0201680002593A
:0201690002583A
:02016A0002573A
:02016B00025739
:02016C00025639
:02016D00025539
:02016E00025538
:02016F00025438
:02017000025338
:02017100025337
:02017200025237
:02017300025137
:02017400025136
:02017500025036
:02017600024F36
:02017700024F35
:02017800024E35
:02017900024D35
:02017A00024D34
:02017B00024C34
:02017C00024B34
:02017D00024B33
:02017E00024A33
:02017F00024933
:02018000024932
:02018100024832
:02018200024732
:02018300024731
:02018400024631
:02018500024531
:02018600024530
:02018700024430
:02018800024330
:0201890002432F
:02018A0002422F
:02018B0002422E
:02018C0002412E
:02018D0002402E
:02018E0002402D
:02018F00023F2D
:02019000023E2D
:02019100023E2C
:02019200023D2C
:02019300023C2C
:02019400023C2B
:02019500023B2B
:02019600023B2A
:02019700023A2A
:0201980002392A
:02019900023929
:02019A00023829
:02019B00023828
:02019C00023728
:02019D00023628
:02019E00023627
:02019F00023527
:0201A000023427
:0201A100023426
:0201A200023326
:0201A300023325
:0201A400023225
:0201A500023125
:0201A600023124
:0201A700023024
:0201A800023023
:0201A900022F23
:0201AA00022E23
:0201AB00022E22
:0201AC00022D22
:0201AD00022D21
:0201AE00022C21
:0201AF00022B21
:0201B000022B20
:0201B100022A20
:0201B200022A1F
:0201B30002291F
:0201B40002291E
:0201B50002281E
:0201B60002271E
:0201B70002271D
:0201B80002261D
:0201B90002261C
:0201BA0002251C
:0201BB0002241C
:0201BC0002241B
:0201BD0002231B
:0201BE0002231A
:0201BF0002221A
:0201C000022219
:0201C100022119
:0201C200022019
:0201C300022018
:0201C400021F18
:0201C500021F17
:0201C600021E17
:0201C700021E16
:0201C800021D16
:0201C900021D15
:0201CA00021C15
:0201CB00021B15
:0201CC00021B14
:0201CD00021A14
:0201CE00021A13
:0201CF00021913
:0201D000021912
:0201D100021812
:0201D200021811
:0201D300021711
:0201D400021611
:0201D500021610
:0201D600021510
:0201D70002150F
:0201D80002140F
:0201D90002140E
:0201DA0002130E
:0201DB0002130D
:0201DC0002120D
:0201DD0002120C
:0201DE0002110C
:0201DF0002110B
:0201E00002100B
:0201E100020F0B
:0201E200020F0A
:0201E300020E0A
:0201E400020E09
:0201E500020D09
:0201E600020D08
:0201E700020C08
:0201E800020C07
:0201E900020B07
:0201EA00020B06
:0201EB00020A06
:0201EC00020A05
:0201ED00020905
:0201EE00020904
:0201EF00020804
:0201F000020803
:0201F100020703
:0201F200020702
:0201F300020602
:0201F400020601
:0201F500020501
:0201F600020500
:0201F700020400
:0201F8000204FF
:0201F9000203FF
:0201FA000203FE
:0201FB000202FE
:0201FC000202FD
:0201FD000201FD
:0201FE000201FC
:0201FF000200FC
:00000001ff
